:100000000C9463000C948B000C948B000C9463058F
:100010000C9463050C9463050C948B000C948B007A
:100020000C948B000C948B000C948B000C94A20409
:100030000C948B000C948B000C948B000C948B0014
:100040000C9400040C948B000C9470040C944A04DF
:100050000C948B000C948B000C948B000C948B00F4
:100060000C948B000C948B000000000024002700EF
:100070002A0000000008000201000003040700003D
:1000800000000000000000000000250028002B00F8
:1000900000000000230026002900040404040404D6
:1000A0000404020202020202030303030303010227
:1000B00004081020408001020408102001020408F6
:1000C0001020DD05800811241FBECFEFD8E0DEBF71
:1000D000CDBF11E0A0E0B1E0ECEAF1E102C0059093
:1000E0000D92A437B107D9F722E0A4E7B1E001C02F
:1000F0001D92AD3AB207E1F710E0C2E6D0E004C0CD
:100100002197FE010E94BE08C136D107C9F70E949F
:10011000C2060C94C9080C940000833081F028F4C6
:10012000813099F08230A1F008958730A9F08830AD
:10013000B9F08430D1F4809180008F7D03C080912C
:1001400080008F7780938000089584B58F7702C0F8
:1001500084B58F7D84BD08958091B0008F7703C0F2
:100160008091B0008F7D8093B0000895CF93DF938E
:10017000282F30E0F901EE58FF4F8491F901E25544
:10018000FF4FD491F901E656FF4FC491CC2391F073
:1001900081110E948D00EC2FF0E0EE0FFF1FE05761
:1001A000FF4FA591B491EC91ED2381E090E021F413
:1001B00080E002C080E090E0DF91CF9108951F932E
:1001C000CF93DF93282F30E0F901EE58FF4F849151
:1001D000F901E255FF4FD491F901E656FF4FC49162
:1001E000CC23C9F0162F81110E948D00EC2FF0E076
:1001F000EE0FFF1FEA57FF4FA591B4918FB7F89408
:10020000111105C09C91ED2FE095E92302C0EC91FE
:10021000ED2BEC938FBFDF91CF911F910895CF937A
:10022000DF9390E0FC01E255FF4F2491FC01E6567C
:10023000FF4F8491882361F190E0880F991FFC01A2
:10024000E859FF4FC591D491FC01EA57FF4FA591A2
:10025000B491611109C09FB7F894888120958223D9
:100260008883EC912E230BC0623061F49FB7F89421
:100270003881822F809583238883EC912E2B2C93B9
:100280009FBF06C08FB7F894E8812E2B28838FBFBD
:10029000DF91CF9108958E3008F08E508770806482
:1002A00080937C0080917A00806480937A008091B2
:1002B0007A0086FDFCCF809178002091790090E053
:1002C000922B08953FB7F8948091C2019091C30199
:1002D000A091C401B091C50126B5A89B05C02F3FD0
:1002E00019F00196A11DB11D3FBFBA2FA92F982F5C
:1002F0008827820F911DA11DB11DBC01CD0142E0D7
:10030000660F771F881F991F4A95D1F70895CF92DE
:10031000DF92EF92FF920F931F93CF93DF936C01C5
:100320007A018B01C0E0D0E0CE15DF0589F0D8015D
:100330006D918D01D601ED91FC910190F081E02D40
:10034000C6010995892B11F47E0102C02196ECCFDC
:10035000C701DF91CF911F910F91FF90EF90DF9038
:10036000CF900895FC01538D448D252F30E0842FCC
:1003700090E0821B930B541710F0CF9608950197CD
:100380000895FC01918D828D981761F0828DDF01B7
:10039000A80FB11D5D968C91928D9F5F9F73928F78
:1003A00090E008958FEF9FEF0895FC01918D828D6D
:1003B000981731F0828DE80FF11D858D90E008953A
:1003C0008FEF9FEF0895FC01918D228D892F90E092
:1003D000805C9F4F821B91098F739927089586EC4B
:1003E00091E00E94E30121E0892B09F420E0822FB3
:1003F0000895FC01848DDF01A80FB11DA35ABF4FE2
:100400002C91848D90E001968F739927848FA68913
:10041000B7892C93A089B1898C9180648C93938D3A
:10042000848D981306C00288F389E02D80818F7D2A
:1004300080830895EF92FF920F931F93CF93DF93E2
:10044000EC0181E0888F9B8D8C8D981305C0E88925
:10045000F989808185FD24C0F62E0B8D10E00F5F99
:100460001F4F0F731127E02E8C8DE8120CC00FB6B2
:1004700007FCFACFE889F989808185FFF5CFCE01A5
:100480000E94F901F1CF8B8DFE01E80FF11DE35AB7
:10049000FF4FF0820B8FEA89FB898081806207C061
:1004A000EE89FF896083E889F9898081806480838F
:1004B00081E090E0DF91CF911F910F91FF90EF903D
:1004C0000895CF93DF93EC01888D8823C9F0EA89E2
:1004D000FB89808185FD05C0A889B9898C9186FD3D
:1004E0000FC00FB607FCF5CF808185FFF2CFA8893A
:1004F000B9898C9185FFEDCFCE010E94F901E7CF3C
:10050000DF91CF91089580E090E0892B29F00E943F
:10051000EF0181110C9400000895FC0190819C3042
:1005200080F5818128E830E0281B310987FD33956B
:10053000220F331F220F331F621773077CF0828153
:1005400028E532E0281B310987FD3395220F331F40
:10055000220F331F621773070CF49B0122503109DD
:10056000220F331F4FB7F894892F90E0FC01EE0F54
:10057000FF1F8E0F9F1FFC01ED59FD4F328321831A
:100580004FBF08951F93CF93DF93EC01162F8881FF
:100590008C3008F04EC061E0812F0E940F018881ED
:1005A000E82FF0E09F01220F331FE20FF31FED59F8
:1005B000FD4F1F739081907C192B108319821A8232
:1005C0006CE00E948A089CE0899FB001112440E001
:1005D00050E09A01260F371FF901EE0FFF1F2E0F73
:1005E0003F1FF901ED59FD4F908196FD16C04F5FF9
:1005F0005F4F4C30510569F781110FC01092800098
:1006000082E0809381001092850010928400B19A5C
:1006100080916F00826080936F00E881F0E0CF01ED
:10062000880F991FE80FF91FED59FD4F80818064F5
:1006300080838881DF91CF911F9108952091B70128
:100640003091B8012817390771F49091B501809164
:10065000B601981741F0E091B501F0E0EC58FE4F7B
:10066000808190E008958FEF9FEF089508951F9384
:10067000CF93DF93DC015C962D913C915D97211522
:10068000310539F481E090E013969C938E93129794
:100690003DC05196ED91FC91529750969C91509788
:1006A000892F80951FB75E964C915E9741FB772707
:1006B00070F941FD6095F8944081772311F0492B42
:1006C00001C048234083E9012197F1F748E05081B8
:1006D00060FF02C0592B01C058235083E9012197C4
:1006E000F1F76695415099F7772321F0908189239E
:1006F000808303C08081982B90831FBF5C968D916F
:100700009C915D970197F1F721E030E0C901DF91FD
:10071000CF911F9108952091B7013091B80128170A
:10072000390771F48091B6012091B50190E0805CA9
:100730009F4F821B910960E470E00E949608089523
:1007400080E090E008952091B7013091B80128171A
:100750003907B9F49091B5018091B601981789F0E5
:10076000E091B501F0E0EC58FE4F80812091B50199
:1007700030E02F5F3F4F2F7333272093B50190E078
:1007800008958FEF9FEF0895E091B701F091B801C0
:10079000E817F90769F4A389B4899C918589809544
:1007A00089238C931092B8011092B70181E00895CB
:1007B00080E00895089580E090E00895009769F042
:1007C000FC0101900020E9F73197AF01481B590B5C
:1007D000BC0186EC91E00C94870180E090E00895E4
:1007E000CF93DF930E94DE03EC0186E291E00E944A
:1007F000DE038C0F9D1FDF91CF9108950E94C408E6
:100800001F920F920FB60F9211242F933F938F9345
:100810009F93AF93BF938091BE019091BF01A09130
:10082000C001B091C1013091BD0123E0230F2D37EC
:1008300020F40196A11DB11D05C026E8230F0296E4
:10084000A11DB11D2093BD018093BE019093BF01F6
:10085000A093C001B093C1018091C2019091C301E6
:10086000A091C401B091C5010196A11DB11D809355
:10087000C2019093C301A093C401B093C501BF917D
:10088000AF919F918F913F912F910F900FBE0F903D
:100890001F9018951F920F920FB60F9211242F934D
:1008A0003F934F935F936F937F938F939F93AF93F8
:1008B000BF93EF93FF9386EC91E00E94F901FF91C3
:1008C000EF91BF91AF919F918F917F916F915F91C8
:1008D0004F913F912F910F900FBE0F901F90189541
:1008E0001F920F920FB60F9211242F938F939F9305
:1008F000EF93FF93E091D601F091D7018081E091D1
:10090000DC01F091DD0182FD12C090818091DF0158
:100910008F5F8F732091E001821751F0E091DF012A
:10092000F0E0EA53FE4F958F8093DF0101C0808194
:10093000FF91EF919F918F912F910F900FBE0F908C
:100940001F9018951F920F920FB60F9211242F939C
:100950003F934F935F936F937F938F939F93AF9347
:10096000BF93EF93FF938091B40187FF05C010926E
:100970008500109284001BC02091B401022E000C4F
:10098000330B8091870290E02817390784F4809117
:10099000B401082E000C990BFC01EE0FFF1F8E0F07
:1009A0009F1FFC01ED59FD4F808186FD15C0809190
:1009B000B4018F5F8093B4012091B401022E000C2A
:1009C000330B8091870290E028173907C4F4809197
:1009D000B4018C3064F113C08091B401082E000C76
:1009E000990BFC01EE0FFF1F8E0F9F1FFC01ED59AD
:1009F000FD4F808160E08F730E94DF00D8CF80912F
:100A0000840090918500049680349C4918F480E419
:100A10009CE905C080918400909185000496909394
:100A20008900809388008FEF8093B4013BC02091B0
:100A30008400309185008091B401082E000C990B40
:100A4000FC01EE0FFF1F8E0F9F1FFC01ED59FD4FA4
:100A500081819281820F931F9093890080938800F7
:100A60008091B401082E000C990BFC01EE0FFF1FC2
:100A70008E0F9F1FFC01ED59FD4F808186FF12C034
:100A80008091B401082E000C990BFC01EE0FFF1FA2
:100A90008E0F9F1FFC01ED59FD4F808161E08F7328
:100AA0000E94DF00FF91EF91BF91AF919F918F91D5
:100AB0007F916F915F914F913F912F910F900FBE5A
:100AC0000F901F9018951F920F920FB60F9211243E
:100AD0002F933F934F935F936F937F938F939F9346
:100AE000AF93BF93EF93FF93E091B701F091B801FB
:100AF000309709F451C0968DA685B785858591FFFD
:100B000004C09C91892329F447C09C91892309F052
:100B100043C0A389B4899C918589809589238C934E
:100B2000868997890197F1F7608D718DA685B785C4
:100B3000558538E020E0CB010197F1F7822F90E056
:100B400095958795282F4C91452309F020683150C1
:100B500091F7868D81FD20958091B60190E00196F8
:100B60008F7399273091B501381749F0A091B601DC
:100B7000B0E0AC58BE4F2C938093B60103C0868D75
:100B80008160868F828D938D0197F1F7A389B48957
:100B90009C918589892B8C93FF91EF91BF91AF91A7
:100BA0009F918F917F916F915F914F913F912F9185
:100BB0000F900FBE0F901F9018951092C9011092C0
:100BC000C80188EE93E0A0E0B0E08093CA01909362
:100BD000CB01A093CC01B093CD0186E091E090933E
:100BE000C7018093C60185EC90E09093D301809378
:100BF000D20184EC90E09093D5018093D40180ECF5
:100C000090E09093D7018093D60181EC90E090938F
:100C1000D9018093D80182EC90E09093DB0180931E
:100C2000DA0186EC90E09093DD018093DC01109274
:100C3000DF011092E0011092E1011092E201809137
:100C400087028C30A0F491E0980F909387028093F4
:100C5000AA0290E0FC01EE0FFF1F8E0F9F1FFC0108
:100C6000ED59FD4F88EB9BE09283818303C08FEFAA
:100C70008093AA02809187028C30A0F491E0980FB3
:100C8000909387028093A70290E0FC01EE0FFF1F74
:100C90008E0F9F1FFC01ED59FD4F88EB9BE0928367
:100CA000818303C08FEF8093A70210928B02109272
:100CB0008A0288EE93E0A0E0B0E080938C029093EB
:100CC0008D02A0938E02B0938F0288E191E0909301
:100CD00089028093880210929F0210929E021092C5
:100CE000A1021092A0021092A3021092A2021092EE
:100CF000A5021092A4026091A6026E7F6D7F6093A0
:100D0000A6026695617081E068278AE00E94DF0094
:100D100061E08AE00E940F01E8EBF0E0E491E093EB
:100D20009802E4EAF0E0E491F0E0EE0FFF1FEA57EA
:100D3000FF4F8591949190939A028093990260E07D
:100D40008BE00E940F018091A60281FD04C061E04A
:100D50008BE00E94DF008BE080939402E9EBF0E0EF
:100D6000E491E0939502E5EAF0E0E491F0E0EE0F23
:100D7000FF1FE057FF4F85919491909397028093C6
:100D800096020895789484B5826084BD84B58160AC
:100D900084BD85B5826085BD85B5816085BD809146
:100DA0006E00816080936E001092810080918100BE
:100DB00082608093810080918100816080938100B6
:100DC000809180008160809380008091B100846078
:100DD0008093B1008091B00081608093B0008091D9
:100DE0007A00846080937A0080917A008260809398
:100DF0007A0080917A00816080937A0080917A00F5
:100E0000806880937A001092C10060E088E00E94C0
:100E10000F0160E089E00E940F0160E087E10E941D
:100E20000F0160E088E10E940F0165E070E08AEA4E
:100E300092E00E94C20266E070E087EA92E00E94BF
:100E4000C202E091D601F091D70182E08083E09167
:100E5000D601F091D7011082E091D201F091D30137
:100E60001082E091D401F091D50180E1808310924D
:100E7000DE01E091DA01F091DB0186E08083E09110
:100E8000D801F091D901808180618083E091D801FF
:100E9000F091D901808188608083E091D801F09140
:100EA000D901808180688083E091D801F091D901D7
:100EB00080818F7D808389E291E00E94F00310920F
:100EC000A3021092A2021092A1021092A00210920C
:100ED0009F0210929E028DEC90E09093A502809369
:100EE000A40290919402963108F057C025E530E0B5
:100EF00030939F0220939E022BEC30E03093A102AE
:100F00002093A00220E930E03093A3022093A202B4
:100F100020916800983050F031E09E3008F430E0C5
:100F200081E001C0880F3A95EAF701C084E0822B86
:100F300080936800983038F09E3040F0963148F049
:100F400020E030E008C02DE630E005C02BE630E0C0
:100F500002C02CE630E030939C0220939B02983034
:100F600030F481E001C0880F9A95EAF70EC0292F6E
:100F700030E09E3018F42850310902C02E5031095B
:100F800081E001C0880F2A95EAF780939D02809145
:100F9000A4029091A5020197F1F78091A20290918D
:100FA000A302892B21F18091B7019091B80122E031
:100FB00088389207E1F0009711F00E94C4038091F5
:100FC000A6028E7F8093A6021092B6011092B50100
:100FD00088E892E09093B8018093B701E0919B027A
:100FE000F0919C02908180919D02892B808388E002
:100FF0000E94B600E82E89E00E94B600F82E80918B
:1010000001018E15A9F0E11007C080E391E00E9474
:10101000F00367E076E006C081E491E00E94F0030F
:101020006EEE75E08AEA92E00E948D02E092010184
:10103000809100018F15A9F0F11007C081E591E0C2
:101040000E94F00367E076E006C083E691E00E942C
:10105000F0036EEE75E087EA92E00E948D02F09256
:10106000000187E10E944B019093BC018093BB017A
:1010700088E10E944B019093BA018093B90188E8FE
:1010800092E00E948B03892B91F088E892E00E9405
:10109000A3037C01682F86EC91E00E941A0288E588
:1010A000E816F10421F486E291E00E94DE030E943A
:1010B00062014B015C018FE0C82ED12CE12CF12C98
:1010C0000E946201DC01CB0188199909AA09BB09B8
:1010D000883E9340A105B10558F021E0C21AD1081D
:1010E000E108F10888EE880E83E0981EA11CB11C6F
:1010F000C114D104E104F10419F70E94830277CFEF
:1011000088E191E0909389028093880288E892E0D8
:101110000C94C403991B79E004C0991F961708F03A
:10112000961B881F7A95C9F78095089597FB072E1F
:1011300016F4009407D077FD09D00E94AA0807FC96
:1011400005D03EF4909581959F4F089570956195D7
:101150007F4F0895AA1BBB1B51E107C0AA1FBB1FED
:10116000A617B70710F0A61BB70B881F991F5A9533
:10117000A9F780959095BC01CD010895EE0FFF1F52
:101180000590F491E02D099481E090E0F8940C949E
:10119000C90810E0C2E6D0E004C0FE010E94BE080B
:0C11A0002196C336D107C9F7F894FFCFA1
:1011AC000404000000001A028701B2016102E3018D
:1011BC00C101D5010000000037038701DB033603B2
:1011CC008B03A3031E030D0A005265616479210091
:1011DC00536572766F204C656674203D20434357EF
:1011EC0000536572766F204C656674203D20435722
:1011FC0000536572766F205269676874203D2043F6
:10120C00435700536572766F205269676874203DAE
:04121C002043570014
:00000001FF
